{
  "contractName": "Campaign",
  "abi": [
    {
      "inputs": [
        {
          "internalType": "uint256",
          "name": "amount",
          "type": "uint256"
        },
        {
          "internalType": "address",
          "name": "sender",
          "type": "address"
        }
      ],
      "stateMutability": "nonpayable",
      "type": "constructor"
    },
    {
      "inputs": [
        {
          "internalType": "address",
          "name": "",
          "type": "address"
        }
      ],
      "name": "approvers",
      "outputs": [
        {
          "internalType": "bool",
          "name": "",
          "type": "bool"
        }
      ],
      "stateMutability": "view",
      "type": "function"
    },
    {
      "inputs": [],
      "name": "manager",
      "outputs": [
        {
          "internalType": "address",
          "name": "",
          "type": "address"
        }
      ],
      "stateMutability": "view",
      "type": "function"
    },
    {
      "inputs": [],
      "name": "minimumAmount",
      "outputs": [
        {
          "internalType": "uint256",
          "name": "",
          "type": "uint256"
        }
      ],
      "stateMutability": "view",
      "type": "function"
    },
    {
      "inputs": [],
      "name": "numRequests",
      "outputs": [
        {
          "internalType": "uint256",
          "name": "",
          "type": "uint256"
        }
      ],
      "stateMutability": "view",
      "type": "function"
    },
    {
      "inputs": [
        {
          "internalType": "uint256",
          "name": "",
          "type": "uint256"
        }
      ],
      "name": "requests",
      "outputs": [
        {
          "internalType": "string",
          "name": "description",
          "type": "string"
        },
        {
          "internalType": "uint256",
          "name": "value",
          "type": "uint256"
        },
        {
          "internalType": "address",
          "name": "recipient",
          "type": "address"
        },
        {
          "internalType": "bool",
          "name": "complete",
          "type": "bool"
        },
        {
          "internalType": "uint256",
          "name": "approvalCount",
          "type": "uint256"
        }
      ],
      "stateMutability": "view",
      "type": "function"
    },
    {
      "inputs": [],
      "name": "contribute",
      "outputs": [],
      "stateMutability": "payable",
      "type": "function"
    },
    {
      "inputs": [
        {
          "internalType": "string",
          "name": "description",
          "type": "string"
        },
        {
          "internalType": "uint256",
          "name": "value",
          "type": "uint256"
        },
        {
          "internalType": "address",
          "name": "recipient",
          "type": "address"
        }
      ],
      "name": "createRequest",
      "outputs": [],
      "stateMutability": "nonpayable",
      "type": "function"
    },
    {
      "inputs": [
        {
          "internalType": "uint256",
          "name": "index",
          "type": "uint256"
        }
      ],
      "name": "approveRequest",
      "outputs": [],
      "stateMutability": "nonpayable",
      "type": "function"
    },
    {
      "inputs": [
        {
          "internalType": "uint256",
          "name": "index",
          "type": "uint256"
        }
      ],
      "name": "finalizeRequest",
      "outputs": [],
      "stateMutability": "nonpayable",
      "type": "function"
    }
  ],
  "bytecode": "0x60806040523480156200001157600080fd5b50604051620010803803806200108083398181016040528101906200003791906200012b565b806000806101000a81548173ffffffffffffffffffffffffffffffffffffffff021916908373ffffffffffffffffffffffffffffffffffffffff16021790555081600181905550505062000172565b600080fd5b6000819050919050565b620000a0816200008b565b8114620000ac57600080fd5b50565b600081519050620000c08162000095565b92915050565b600073ffffffffffffffffffffffffffffffffffffffff82169050919050565b6000620000f382620000c6565b9050919050565b6200010581620000e6565b81146200011157600080fd5b50565b6000815190506200012581620000fa565b92915050565b6000806040838503121562000145576200014462000086565b5b60006200015585828601620000af565b9250506020620001688582860162000114565b9150509250929050565b610efe80620001826000396000f3fe6080604052600436106100865760003560e01c80638a9cfd55116100595780638a9cfd551461015d5780639fb42b1f14610186578063bb0c8298146101b1578063d7bb99ba146101dc578063d7d1bbdb146101e657610086565b8063034410061461008b5780630a144391146100b4578063481c6a75146100f157806381d12c581461011c575b600080fd5b34801561009757600080fd5b506100b260048036038101906100ad9190610743565b61020f565b005b3480156100c057600080fd5b506100db60048036038101906100d691906107ce565b6102f0565b6040516100e89190610816565b60405180910390f35b3480156100fd57600080fd5b50610106610310565b6040516101139190610840565b60405180910390f35b34801561012857600080fd5b50610143600480360381019061013e9190610743565b610334565b6040516101549594939291906108fa565b60405180910390f35b34801561016957600080fd5b50610184600480360381019061017f9190610a89565b61041f565b005b34801561019257600080fd5b5061019b61052f565b6040516101a89190610af8565b60405180910390f35b3480156101bd57600080fd5b506101c6610535565b6040516101d39190610af8565b60405180910390f35b6101e461053b565b005b3480156101f257600080fd5b5061020d60048036038101906102089190610743565b6105bb565b005b60006005600083815260200190815260200160002090508060020160149054906101000a900460ff161561024257600080fd5b60026003546102519190610b71565b81600301541161026057600080fd5b8060020160009054906101000a900473ffffffffffffffffffffffffffffffffffffffff1673ffffffffffffffffffffffffffffffffffffffff166108fc82600101549081150290604051600060405180830381858888f193505050501580156102ce573d6000803e3d6000fd5b5060018160020160146101000a81548160ff0219169083151502179055505050565b60026020528060005260406000206000915054906101000a900460ff1681565b60008054906101000a900473ffffffffffffffffffffffffffffffffffffffff1681565b600560205280600052604060002060009150905080600001805461035790610bd1565b80601f016020809104026020016040519081016040528092919081815260200182805461038390610bd1565b80156103d05780601f106103a5576101008083540402835291602001916103d0565b820191906000526020600020905b8154815290600101906020018083116103b357829003601f168201915b5050505050908060010154908060020160009054906101000a900473ffffffffffffffffffffffffffffffffffffffff16908060020160149054906101000a900460ff16908060030154905085565b60008054906101000a900473ffffffffffffffffffffffffffffffffffffffff1673ffffffffffffffffffffffffffffffffffffffff163373ffffffffffffffffffffffffffffffffffffffff161461047757600080fd5b6000600560006004600081548092919061049090610c02565b9190505581526020019081526020016000209050838160000190816104b59190610df6565b50828160010181905550818160020160006101000a81548173ffffffffffffffffffffffffffffffffffffffff021916908373ffffffffffffffffffffffffffffffffffffffff16021790555060008160020160146101000a81548160ff0219169083151502179055506000816003018190555050505050565b60045481565b60015481565b600154341161054957600080fd5b6001600260003373ffffffffffffffffffffffffffffffffffffffff1673ffffffffffffffffffffffffffffffffffffffff16815260200190815260200160002060006101000a81548160ff021916908315150217905550600360008154809291906105b490610c02565b9190505550565b6000600560008381526020019081526020016000209050600260003373ffffffffffffffffffffffffffffffffffffffff1673ffffffffffffffffffffffffffffffffffffffff16815260200190815260200160002060009054906101000a900460ff1661062857600080fd5b8060040160003373ffffffffffffffffffffffffffffffffffffffff1673ffffffffffffffffffffffffffffffffffffffff16815260200190815260200160002060009054906101000a900460ff161561068157600080fd5b60018160040160003373ffffffffffffffffffffffffffffffffffffffff1673ffffffffffffffffffffffffffffffffffffffff16815260200190815260200160002060006101000a81548160ff0219169083151502179055508060030160008154809291906106f090610c02565b91905055505050565b6000604051905090565b600080fd5b600080fd5b6000819050919050565b6107208161070d565b811461072b57600080fd5b50565b60008135905061073d81610717565b92915050565b60006020828403121561075957610758610703565b5b60006107678482850161072e565b91505092915050565b600073ffffffffffffffffffffffffffffffffffffffff82169050919050565b600061079b82610770565b9050919050565b6107ab81610790565b81146107b657600080fd5b50565b6000813590506107c8816107a2565b92915050565b6000602082840312156107e4576107e3610703565b5b60006107f2848285016107b9565b91505092915050565b60008115159050919050565b610810816107fb565b82525050565b600060208201905061082b6000830184610807565b92915050565b61083a81610790565b82525050565b60006020820190506108556000830184610831565b92915050565b600081519050919050565b600082825260208201905092915050565b60005b8381101561089557808201518184015260208101905061087a565b60008484015250505050565b6000601f19601f8301169050919050565b60006108bd8261085b565b6108c78185610866565b93506108d7818560208601610877565b6108e0816108a1565b840191505092915050565b6108f48161070d565b82525050565b600060a082019050818103600083015261091481886108b2565b905061092360208301876108eb565b6109306040830186610831565b61093d6060830185610807565b61094a60808301846108eb565b9695505050505050565b600080fd5b600080fd5b7f4e487b7100000000000000000000000000000000000000000000000000000000600052604160045260246000fd5b610996826108a1565b810181811067ffffffffffffffff821117156109b5576109b461095e565b5b80604052505050565b60006109c86106f9565b90506109d4828261098d565b919050565b600067ffffffffffffffff8211156109f4576109f361095e565b5b6109fd826108a1565b9050602081019050919050565b82818337600083830152505050565b6000610a2c610a27846109d9565b6109be565b905082815260208101848484011115610a4857610a47610959565b5b610a53848285610a0a565b509392505050565b600082601f830112610a7057610a6f610954565b5b8135610a80848260208601610a19565b91505092915050565b600080600060608486031215610aa257610aa1610703565b5b600084013567ffffffffffffffff811115610ac057610abf610708565b5b610acc86828701610a5b565b9350506020610add8682870161072e565b9250506040610aee868287016107b9565b9150509250925092565b6000602082019050610b0d60008301846108eb565b92915050565b7f4e487b7100000000000000000000000000000000000000000000000000000000600052601260045260246000fd5b7f4e487b7100000000000000000000000000000000000000000000000000000000600052601160045260246000fd5b6000610b7c8261070d565b9150610b878361070d565b925082610b9757610b96610b13565b5b828204905092915050565b7f4e487b7100000000000000000000000000000000000000000000000000000000600052602260045260246000fd5b60006002820490506001821680610be957607f821691505b602082108103610bfc57610bfb610ba2565b5b50919050565b6000610c0d8261070d565b91507fffffffffffffffffffffffffffffffffffffffffffffffffffffffffffffffff8203610c3f57610c3e610b42565b5b600182019050919050565b60008190508160005260206000209050919050565b60006020601f8301049050919050565b600082821b905092915050565b600060088302610cac7fffffffffffffffffffffffffffffffffffffffffffffffffffffffffffffffff82610c6f565b610cb68683610c6f565b95508019841693508086168417925050509392505050565b6000819050919050565b6000610cf3610cee610ce98461070d565b610cce565b61070d565b9050919050565b6000819050919050565b610d0d83610cd8565b610d21610d1982610cfa565b848454610c7c565b825550505050565b600090565b610d36610d29565b610d41818484610d04565b505050565b5b81811015610d6557610d5a600082610d2e565b600181019050610d47565b5050565b601f821115610daa57610d7b81610c4a565b610d8484610c5f565b81016020851015610d93578190505b610da7610d9f85610c5f565b830182610d46565b50505b505050565b600082821c905092915050565b6000610dcd60001984600802610daf565b1980831691505092915050565b6000610de68383610dbc565b9150826002028217905092915050565b610dff8261085b565b67ffffffffffffffff811115610e1857610e1761095e565b5b610e228254610bd1565b610e2d828285610d69565b600060209050601f831160018114610e605760008415610e4e578287015190505b610e588582610dda565b865550610ec0565b601f198416610e6e86610c4a565b60005b82811015610e9657848901518255600182019150602085019450602081019050610e71565b86831015610eb35784890151610eaf601f891682610dbc565b8355505b6001600288020188555050505b50505050505056fea264697066735822122050037f051612fd2d08b4212e6f362e660b6b917a7bd7629e6323909ac802747664736f6c63430008110033",
  "immutableReferences": {},
  "source": "// SPDX-License-Identifier: GPL-3.0\r\n\r\npragma solidity >=0.7.0 <0.9.0;\r\n\r\ncontract CampaignFactory{\r\n    address[] deployedCampaigns;\r\n\r\n    function createCampaign(uint minimum) public {\r\n        Campaign newCampaign = new Campaign(minimum,msg.sender);\r\n        deployedCampaigns.push(address(newCampaign));\r\n    }\r\n\r\n    function getDeployedContracts() public view returns(address[] memory){\r\n        return deployedCampaigns;\r\n    }\r\n}\r\n\r\ncontract Campaign{\r\n    struct Request{\r\n        string description;\r\n        uint value;\r\n        address recipient;\r\n        bool complete;\r\n        uint approvalCount;\r\n        mapping(address => bool) approvals;\r\n    }\r\n\r\n    // Request[] public requestArray;\r\n    address public manager;\r\n    uint public minimumAmount;\r\n    mapping(address => bool) public approvers;\r\n    uint approversCount;\r\n    uint public numRequests ;\r\n    mapping (uint => Request) public requests;\r\n\r\n    modifier restricted(){\r\n        require(msg.sender == manager);\r\n        _;\r\n    }\r\n\r\n    constructor (uint256 amount, address sender) {\r\n        manager = sender;\r\n        minimumAmount = amount;\r\n    }\r\n\r\n    function contribute() public payable{\r\n        require(msg.value > minimumAmount);\r\n\r\n        approvers[msg.sender] = true;\r\n        approversCount++;\r\n    }\r\n\r\n    function createRequest(string memory description, uint value, address recipient) public restricted{\r\n        Request storage newRequest= requests[numRequests++];\r\n\r\n        newRequest.description = description;\r\n        newRequest.value = value;\r\n        newRequest.recipient = recipient;\r\n        newRequest.complete = false;\r\n        newRequest.approvalCount = 0;\r\n    }\r\n\r\n    function approveRequest(uint index) public{\r\n        Request storage request = requests[index];\r\n\r\n        require(approvers[msg.sender]);\r\n        require(!request.approvals[msg.sender]);\r\n\r\n        request.approvals[msg.sender] = true;\r\n        request.approvalCount++;\r\n    }\r\n\r\n    function finalizeRequest(uint index) public{\r\n        Request storage request = requests[index];\r\n\r\n        require(!request.complete);\r\n\r\n        require(request.approvalCount > (approversCount / 2));\r\n\r\n        payable(request.recipient).transfer(request.value);\r\n\r\n        request.complete = true;\r\n    }\r\n\r\n}",
  "sourcePath": "D:\\Omkar\\Blockchain\\Crowd_Funding_System_on_ethereum_blockchain\\contracts\\Campaign.sol",
  "compiler": {
    "name": "solc",
    "version": "0.8.17+commit.8df45f5f.Emscripten.clang"
  },
  "schemaVersion": "3.4.10",
  "updatedAt": "2022-11-24T05:40:06.659Z",
  "networkType": "ethereum",
  "devdoc": {
    "kind": "dev",
    "methods": {},
    "version": 1
  },
  "userdoc": {
    "kind": "user",
    "methods": {},
    "version": 1
  }
}